{
  "contractName": "TODWallet",
  "abi": [
    {
      "inputs": [
        {
          "internalType": "address[]",
          "name": "_owners",
          "type": "address[]"
        },
        {
          "internalType": "uint256",
          "name": "_numConfirmationsRequired",
          "type": "uint256"
        },
        {
          "internalType": "address[]",
          "name": "_hiers",
          "type": "address[]"
        },
        {
          "internalType": "uint256",
          "name": "_PeriodAfterVoting",
          "type": "uint256"
        }
      ],
      "stateMutability": "nonpayable",
      "type": "constructor"
    },
    {
      "anonymous": false,
      "inputs": [
        {
          "indexed": true,
          "internalType": "address",
          "name": "sender",
          "type": "address"
        },
        {
          "indexed": false,
          "internalType": "uint256",
          "name": "amount",
          "type": "uint256"
        },
        {
          "indexed": false,
          "internalType": "uint256",
          "name": "balance",
          "type": "uint256"
        }
      ],
      "name": "Deposit",
      "type": "event"
    },
    {
      "anonymous": false,
      "inputs": [
        {
          "indexed": true,
          "internalType": "bytes32",
          "name": "role",
          "type": "bytes32"
        },
        {
          "indexed": true,
          "internalType": "bytes32",
          "name": "previousAdminRole",
          "type": "bytes32"
        },
        {
          "indexed": true,
          "internalType": "bytes32",
          "name": "newAdminRole",
          "type": "bytes32"
        }
      ],
      "name": "RoleAdminChanged",
      "type": "event"
    },
    {
      "anonymous": false,
      "inputs": [
        {
          "indexed": true,
          "internalType": "bytes32",
          "name": "role",
          "type": "bytes32"
        },
        {
          "indexed": true,
          "internalType": "address",
          "name": "account",
          "type": "address"
        },
        {
          "indexed": true,
          "internalType": "address",
          "name": "sender",
          "type": "address"
        }
      ],
      "name": "RoleGranted",
      "type": "event"
    },
    {
      "anonymous": false,
      "inputs": [
        {
          "indexed": true,
          "internalType": "bytes32",
          "name": "role",
          "type": "bytes32"
        },
        {
          "indexed": true,
          "internalType": "address",
          "name": "account",
          "type": "address"
        },
        {
          "indexed": true,
          "internalType": "address",
          "name": "sender",
          "type": "address"
        }
      ],
      "name": "RoleRevoked",
      "type": "event"
    },
    {
      "anonymous": false,
      "inputs": [
        {
          "indexed": true,
          "internalType": "address",
          "name": "owner",
          "type": "address"
        },
        {
          "indexed": true,
          "internalType": "uint256",
          "name": "txIndex",
          "type": "uint256"
        }
      ],
      "name": "approveTx",
      "type": "event"
    },
    {
      "anonymous": false,
      "inputs": [
        {
          "indexed": true,
          "internalType": "address",
          "name": "owner",
          "type": "address"
        },
        {
          "indexed": true,
          "internalType": "uint256",
          "name": "txIndex",
          "type": "uint256"
        }
      ],
      "name": "execTx",
      "type": "event"
    },
    {
      "anonymous": false,
      "inputs": [
        {
          "indexed": true,
          "internalType": "address",
          "name": "owner",
          "type": "address"
        },
        {
          "indexed": true,
          "internalType": "uint256",
          "name": "txIndex",
          "type": "uint256"
        }
      ],
      "name": "removeConfirmation",
      "type": "event"
    },
    {
      "anonymous": false,
      "inputs": [
        {
          "indexed": true,
          "internalType": "address",
          "name": "owner",
          "type": "address"
        },
        {
          "indexed": true,
          "internalType": "uint256",
          "name": "txIndex",
          "type": "uint256"
        },
        {
          "indexed": true,
          "internalType": "address",
          "name": "to",
          "type": "address"
        },
        {
          "indexed": false,
          "internalType": "uint256",
          "name": "value",
          "type": "uint256"
        },
        {
          "indexed": false,
          "internalType": "bytes",
          "name": "data",
          "type": "bytes"
        }
      ],
      "name": "requestTx",
      "type": "event"
    },
    {
      "inputs": [],
      "name": "AllVotedDead",
      "outputs": [
        {
          "internalType": "uint256",
          "name": "",
          "type": "uint256"
        }
      ],
      "stateMutability": "view",
      "type": "function",
      "constant": true
    },
    {
      "inputs": [],
      "name": "Confirmations",
      "outputs": [
        {
          "internalType": "uint256",
          "name": "",
          "type": "uint256"
        }
      ],
      "stateMutability": "view",
      "type": "function",
      "constant": true
    },
    {
      "inputs": [],
      "name": "DEFAULT_ADMIN_ROLE",
      "outputs": [
        {
          "internalType": "bytes32",
          "name": "",
          "type": "bytes32"
        }
      ],
      "stateMutability": "view",
      "type": "function",
      "constant": true
    },
    {
      "inputs": [],
      "name": "HIER_ROLE",
      "outputs": [
        {
          "internalType": "bytes32",
          "name": "",
          "type": "bytes32"
        }
      ],
      "stateMutability": "view",
      "type": "function",
      "constant": true
    },
    {
      "inputs": [],
      "name": "LastPing",
      "outputs": [
        {
          "internalType": "uint256",
          "name": "",
          "type": "uint256"
        }
      ],
      "stateMutability": "view",
      "type": "function",
      "constant": true
    },
    {
      "inputs": [],
      "name": "PeriodAfterVoting",
      "outputs": [
        {
          "internalType": "uint256",
          "name": "",
          "type": "uint256"
        }
      ],
      "stateMutability": "view",
      "type": "function",
      "constant": true
    },
    {
      "inputs": [],
      "name": "Reminder",
      "outputs": [
        {
          "internalType": "string",
          "name": "",
          "type": "string"
        }
      ],
      "stateMutability": "view",
      "type": "function",
      "constant": true
    },
    {
      "inputs": [],
      "name": "TimeLeft",
      "outputs": [
        {
          "internalType": "uint256",
          "name": "",
          "type": "uint256"
        }
      ],
      "stateMutability": "view",
      "type": "function",
      "constant": true
    },
    {
      "inputs": [
        {
          "internalType": "bytes32",
          "name": "role",
          "type": "bytes32"
        }
      ],
      "name": "getRoleAdmin",
      "outputs": [
        {
          "internalType": "bytes32",
          "name": "",
          "type": "bytes32"
        }
      ],
      "stateMutability": "view",
      "type": "function",
      "constant": true
    },
    {
      "inputs": [
        {
          "internalType": "bytes32",
          "name": "role",
          "type": "bytes32"
        },
        {
          "internalType": "address",
          "name": "account",
          "type": "address"
        }
      ],
      "name": "grantRole",
      "outputs": [],
      "stateMutability": "nonpayable",
      "type": "function"
    },
    {
      "inputs": [
        {
          "internalType": "bytes32",
          "name": "role",
          "type": "bytes32"
        },
        {
          "internalType": "address",
          "name": "account",
          "type": "address"
        }
      ],
      "name": "hasRole",
      "outputs": [
        {
          "internalType": "bool",
          "name": "",
          "type": "bool"
        }
      ],
      "stateMutability": "view",
      "type": "function",
      "constant": true
    },
    {
      "inputs": [
        {
          "internalType": "uint256",
          "name": "",
          "type": "uint256"
        }
      ],
      "name": "hiers",
      "outputs": [
        {
          "internalType": "address",
          "name": "",
          "type": "address"
        }
      ],
      "stateMutability": "view",
      "type": "function",
      "constant": true
    },
    {
      "inputs": [
        {
          "internalType": "uint256",
          "name": "",
          "type": "uint256"
        },
        {
          "internalType": "address",
          "name": "",
          "type": "address"
        }
      ],
      "name": "isConfirmed",
      "outputs": [
        {
          "internalType": "bool",
          "name": "",
          "type": "bool"
        }
      ],
      "stateMutability": "view",
      "type": "function",
      "constant": true
    },
    {
      "inputs": [
        {
          "internalType": "address",
          "name": "",
          "type": "address"
        }
      ],
      "name": "isOwner",
      "outputs": [
        {
          "internalType": "bool",
          "name": "",
          "type": "bool"
        }
      ],
      "stateMutability": "view",
      "type": "function",
      "constant": true
    },
    {
      "inputs": [
        {
          "internalType": "address",
          "name": "",
          "type": "address"
        }
      ],
      "name": "isVoted",
      "outputs": [
        {
          "internalType": "bool",
          "name": "",
          "type": "bool"
        }
      ],
      "stateMutability": "view",
      "type": "function",
      "constant": true
    },
    {
      "inputs": [],
      "name": "name",
      "outputs": [
        {
          "internalType": "string",
          "name": "",
          "type": "string"
        }
      ],
      "stateMutability": "view",
      "type": "function",
      "constant": true
    },
    {
      "inputs": [
        {
          "internalType": "uint256",
          "name": "",
          "type": "uint256"
        }
      ],
      "name": "owners",
      "outputs": [
        {
          "internalType": "address",
          "name": "",
          "type": "address"
        }
      ],
      "stateMutability": "view",
      "type": "function",
      "constant": true
    },
    {
      "inputs": [
        {
          "internalType": "bytes32",
          "name": "role",
          "type": "bytes32"
        },
        {
          "internalType": "address",
          "name": "account",
          "type": "address"
        }
      ],
      "name": "renounceRole",
      "outputs": [],
      "stateMutability": "nonpayable",
      "type": "function"
    },
    {
      "inputs": [
        {
          "internalType": "bytes32",
          "name": "role",
          "type": "bytes32"
        },
        {
          "internalType": "address",
          "name": "account",
          "type": "address"
        }
      ],
      "name": "revokeRole",
      "outputs": [],
      "stateMutability": "nonpayable",
      "type": "function"
    },
    {
      "inputs": [
        {
          "internalType": "bytes4",
          "name": "interfaceId",
          "type": "bytes4"
        }
      ],
      "name": "supportsInterface",
      "outputs": [
        {
          "internalType": "bool",
          "name": "",
          "type": "bool"
        }
      ],
      "stateMutability": "view",
      "type": "function",
      "constant": true
    },
    {
      "inputs": [
        {
          "internalType": "uint256",
          "name": "",
          "type": "uint256"
        }
      ],
      "name": "transactions",
      "outputs": [
        {
          "internalType": "address",
          "name": "to",
          "type": "address"
        },
        {
          "internalType": "uint256",
          "name": "value",
          "type": "uint256"
        },
        {
          "internalType": "bytes",
          "name": "data",
          "type": "bytes"
        },
        {
          "internalType": "bool",
          "name": "executed",
          "type": "bool"
        },
        {
          "internalType": "uint256",
          "name": "numConfirmations",
          "type": "uint256"
        }
      ],
      "stateMutability": "view",
      "type": "function",
      "constant": true
    },
    {
      "inputs": [],
      "name": "votes",
      "outputs": [
        {
          "internalType": "uint256",
          "name": "",
          "type": "uint256"
        }
      ],
      "stateMutability": "view",
      "type": "function",
      "constant": true
    },
    {
      "stateMutability": "payable",
      "type": "receive",
      "payable": true
    },
    {
      "inputs": [
        {
          "internalType": "address",
          "name": "_to",
          "type": "address"
        },
        {
          "internalType": "uint256",
          "name": "_value",
          "type": "uint256"
        },
        {
          "internalType": "bytes",
          "name": "_data",
          "type": "bytes"
        }
      ],
      "name": "requestTxFunc",
      "outputs": [],
      "stateMutability": "nonpayable",
      "type": "function"
    },
    {
      "inputs": [
        {
          "internalType": "uint256",
          "name": "_txIndex",
          "type": "uint256"
        }
      ],
      "name": "approveTxFunc",
      "outputs": [],
      "stateMutability": "nonpayable",
      "type": "function"
    },
    {
      "inputs": [
        {
          "internalType": "uint256",
          "name": "_txIndex",
          "type": "uint256"
        }
      ],
      "name": "execTxFunc",
      "outputs": [],
      "stateMutability": "nonpayable",
      "type": "function"
    },
    {
      "inputs": [
        {
          "internalType": "uint256",
          "name": "_txIndex",
          "type": "uint256"
        }
      ],
      "name": "removeConfirmationFunc",
      "outputs": [],
      "stateMutability": "nonpayable",
      "type": "function"
    },
    {
      "inputs": [],
      "name": "getOwners",
      "outputs": [
        {
          "internalType": "address[]",
          "name": "",
          "type": "address[]"
        }
      ],
      "stateMutability": "view",
      "type": "function",
      "constant": true
    },
    {
      "inputs": [],
      "name": "getHiers",
      "outputs": [
        {
          "internalType": "address[]",
          "name": "",
          "type": "address[]"
        }
      ],
      "stateMutability": "view",
      "type": "function",
      "constant": true
    },
    {
      "inputs": [],
      "name": "numberOfTransactionsGetter",
      "outputs": [
        {
          "internalType": "uint256",
          "name": "",
          "type": "uint256"
        }
      ],
      "stateMutability": "view",
      "type": "function",
      "constant": true
    },
    {
      "inputs": [
        {
          "internalType": "uint256",
          "name": "_txIndex",
          "type": "uint256"
        }
      ],
      "name": "TxGetter",
      "outputs": [
        {
          "internalType": "address",
          "name": "to",
          "type": "address"
        },
        {
          "internalType": "uint256",
          "name": "value",
          "type": "uint256"
        },
        {
          "internalType": "bytes",
          "name": "data",
          "type": "bytes"
        },
        {
          "internalType": "bool",
          "name": "executed",
          "type": "bool"
        },
        {
          "internalType": "uint256",
          "name": "numConfirmations",
          "type": "uint256"
        }
      ],
      "stateMutability": "view",
      "type": "function",
      "constant": true
    },
    {
      "inputs": [],
      "name": "getLatestPrice",
      "outputs": [
        {
          "internalType": "int256",
          "name": "",
          "type": "int256"
        }
      ],
      "stateMutability": "view",
      "type": "function",
      "constant": true
    },
    {
      "inputs": [],
      "name": "OwnerIsDeceased",
      "outputs": [],
      "stateMutability": "nonpayable",
      "type": "function"
    },
    {
      "inputs": [],
      "name": "getReminder",
      "outputs": [
        {
          "internalType": "string",
          "name": "",
          "type": "string"
        }
      ],
      "stateMutability": "view",
      "type": "function",
      "constant": true
    },
    {
      "inputs": [],
      "name": "getTimeLeftToPing",
      "outputs": [
        {
          "internalType": "uint256",
          "name": "",
          "type": "uint256"
        }
      ],
      "stateMutability": "nonpayable",
      "type": "function"
    },
    {
      "inputs": [],
      "name": "IamAllive",
      "outputs": [],
      "stateMutability": "nonpayable",
      "type": "function"
    },
    {
      "inputs": [],
      "name": "IfOwnerDead",
      "outputs": [],
      "stateMutability": "nonpayable",
      "type": "function"
    }
  ],
  "bytecode": "0x60806040526040518060400160405280600981526020017f544f4457616c6c65740000000000000000000000000000000000000000000000815250600190805190602001906200005192919062000690565b50426009556000600a5560405180602001604052806000815250600b90805190602001906200008292919062000690565b506000600c553480156200009557600080fd5b506040516200453f3803806200453f8339818101604052810190620000bb919062000969565b600084511162000102576040517f08c379a0000000000000000000000000000000000000000000000000000000008152600401620000f99062000a7a565b60405180910390fd5b60008311801562000114575083518311155b62000156576040517f08c379a00000000000000000000000000000000000000000000000000000000081526004016200014d9062000b12565b60405180910390fd5b739326bfa02add2366b30bacb125260af641031331600d60006101000a81548173ffffffffffffffffffffffffffffffffffffffff021916908373ffffffffffffffffffffffffffffffffffffffff16021790555060005b8451811015620003af576000858281518110620001d057620001cf62000b34565b5b60200260200101519050600073ffffffffffffffffffffffffffffffffffffffff168173ffffffffffffffffffffffffffffffffffffffff1614156200024d576040517f08c379a0000000000000000000000000000000000000000000000000000000008152600401620002449062000bb3565b60405180910390fd5b600460008273ffffffffffffffffffffffffffffffffffffffff1673ffffffffffffffffffffffffffffffffffffffff16815260200190815260200160002060009054906101000a900460ff1615620002dd576040517f08c379a0000000000000000000000000000000000000000000000000000000008152600401620002d49062000c25565b60405180910390fd5b6001600460008373ffffffffffffffffffffffffffffffffffffffff1673ffffffffffffffffffffffffffffffffffffffff16815260200190815260200160002060006101000a81548160ff0219169083151502179055506002819080600181540180825580915050600190039060005260206000200160009091909190916101000a81548173ffffffffffffffffffffffffffffffffffffffff021916908373ffffffffffffffffffffffffffffffffffffffff160217905550508080620003a69062000c76565b915050620001ae565b5060005b8251811015620004fe576000838281518110620003d557620003d462000b34565b5b60200260200101519050600073ffffffffffffffffffffffffffffffffffffffff168173ffffffffffffffffffffffffffffffffffffffff16141562000452576040517f08c379a0000000000000000000000000000000000000000000000000000000008152600401620004499062000bb3565b60405180910390fd5b6003819080600181540180825580915050600190039060005260206000200160009091909190916101000a81548173ffffffffffffffffffffffffffffffffffffffff021916908373ffffffffffffffffffffffffffffffffffffffff160217905550620004e77f6ef4bee37ad6db93fb68962b641de2c2c640c31c387583c84b86d117da32a78e826200051760201b60201c565b508080620004f59062000c76565b915050620003b3565b5082600781905550806006819055505050505062000d29565b6200052982826200052d60201b60201c565b5050565b6200053f82826200061e60201b60201c565b6200061a57600160008084815260200190815260200160002060000160008373ffffffffffffffffffffffffffffffffffffffff1673ffffffffffffffffffffffffffffffffffffffff16815260200190815260200160002060006101000a81548160ff021916908315150217905550620005bf6200068860201b60201c565b73ffffffffffffffffffffffffffffffffffffffff168173ffffffffffffffffffffffffffffffffffffffff16837f2f8788117e7eff1d82e926ec794901d17c78024a50270940304540a733656f0d60405160405180910390a45b5050565b600080600084815260200190815260200160002060000160008373ffffffffffffffffffffffffffffffffffffffff1673ffffffffffffffffffffffffffffffffffffffff16815260200190815260200160002060009054906101000a900460ff16905092915050565b600033905090565b8280546200069e9062000cf3565b90600052602060002090601f016020900481019282620006c257600085556200070e565b82601f10620006dd57805160ff19168380011785556200070e565b828001600101855582156200070e579182015b828111156200070d578251825591602001919060010190620006f0565b5b5090506200071d919062000721565b5090565b5b808211156200073c57600081600090555060010162000722565b5090565b6000604051905090565b600080fd5b600080fd5b600080fd5b6000601f19601f8301169050919050565b7f4e487b7100000000000000000000000000000000000000000000000000000000600052604160045260246000fd5b620007a48262000759565b810181811067ffffffffffffffff82111715620007c657620007c56200076a565b5b80604052505050565b6000620007db62000740565b9050620007e9828262000799565b919050565b600067ffffffffffffffff8211156200080c576200080b6200076a565b5b602082029050602081019050919050565b600080fd5b600073ffffffffffffffffffffffffffffffffffffffff82169050919050565b60006200084f8262000822565b9050919050565b620008618162000842565b81146200086d57600080fd5b50565b600081519050620008818162000856565b92915050565b60006200089e6200089884620007ee565b620007cf565b90508083825260208201905060208402830185811115620008c457620008c36200081d565b5b835b81811015620008f15780620008dc888262000870565b845260208401935050602081019050620008c6565b5050509392505050565b600082601f83011262000913576200091262000754565b5b81516200092584826020860162000887565b91505092915050565b6000819050919050565b62000943816200092e565b81146200094f57600080fd5b50565b600081519050620009638162000938565b92915050565b600080600080608085870312156200098657620009856200074a565b5b600085015167ffffffffffffffff811115620009a757620009a66200074f565b5b620009b587828801620008fb565b9450506020620009c88782880162000952565b935050604085015167ffffffffffffffff811115620009ec57620009eb6200074f565b5b620009fa87828801620008fb565b925050606062000a0d8782880162000952565b91505092959194509250565b600082825260208201905092915050565b7f6f776e6572732072657175697265640000000000000000000000000000000000600082015250565b600062000a62600f8362000a19565b915062000a6f8262000a2a565b602082019050919050565b6000602082019050818103600083015262000a958162000a53565b9050919050565b7f696e76616c6964206e756d626572206f6620726571756972656420636f6e666960008201527f726d6174696f6e73000000000000000000000000000000000000000000000000602082015250565b600062000afa60288362000a19565b915062000b078262000a9c565b604082019050919050565b6000602082019050818103600083015262000b2d8162000aeb565b9050919050565b7f4e487b7100000000000000000000000000000000000000000000000000000000600052603260045260246000fd5b7f696e76616c6964206f776e657200000000000000000000000000000000000000600082015250565b600062000b9b600d8362000a19565b915062000ba88262000b63565b602082019050919050565b6000602082019050818103600083015262000bce8162000b8c565b9050919050565b7f6f776e6572206e6f7420756e6971756500000000000000000000000000000000600082015250565b600062000c0d60108362000a19565b915062000c1a8262000bd5565b602082019050919050565b6000602082019050818103600083015262000c408162000bfe565b9050919050565b7f4e487b7100000000000000000000000000000000000000000000000000000000600052601160045260246000fd5b600062000c83826200092e565b91507fffffffffffffffffffffffffffffffffffffffffffffffffffffffffffffffff82141562000cb95762000cb862000c47565b5b600182019050919050565b7f4e487b7100000000000000000000000000000000000000000000000000000000600052602260045260246000fd5b6000600282049050600182168062000d0c57607f821691505b6020821081141562000d235762000d2262000cc4565b5b50919050565b6138068062000d396000396000f3fe6080604052600436106102135760003560e01c80639ace38c211610118578063bb181f0c116100a0578063d547741f1161006f578063d547741f14610818578063de824f9314610841578063e168c3ec1461086c578063edd3386714610897578063f26f40f2146108c25761026a565b8063bb181f0c14610748578063c0413dbe14610773578063c5c21173146107b0578063cbff75cb146107db5761026a565b8063a5037b56116100e7578063a5037b5614610685578063a5a20fb2146106b0578063ae71846c146106c7578063b49a6de1146106f0578063ba6e3c07146107315761026a565b80639ace38c2146105c5578063a0e67e2b14610606578063a1f8a18414610631578063a217fddf1461065a5761026a565b80633f3db4241161019b57806380f59a651161016a57806380f59a65146104cc5780638661aa5814610509578063884935a6146105345780638e15f4731461055d57806391d14854146105885761026a565b80633f3db424146104345780634540345c1461044b5780635619be53146104765780635e08d8db146104a15761026a565b806319479d1a116101e257806319479d1a1461033d578063248a9ca3146103685780632f2ff15d146103a55780632f54bf6e146103ce57806336568abe1461040b5761026a565b806301e124c71461026f57806301ffc9a714610298578063025e7c27146102d557806306fdde03146103125761026a565b3661026a573373ffffffffffffffffffffffffffffffffffffffff167f90890809c654f11d6e72a28fa60149770a0d11ec6c92319d6ceb2bb0a4ea1a1534476040516102609291906125fb565b60405180910390a2005b600080fd5b34801561027b57600080fd5b5061029660048036038101906102919190612808565b6108ed565b005b3480156102a457600080fd5b506102bf60048036038101906102ba91906128cf565b610af7565b6040516102cc9190612917565b60405180910390f35b3480156102e157600080fd5b506102fc60048036038101906102f79190612932565b610b71565b604051610309919061296e565b60405180910390f35b34801561031e57600080fd5b50610327610bb0565b6040516103349190612a11565b60405180910390f35b34801561034957600080fd5b50610352610c3e565b60405161035f9190612a4c565b60405180910390f35b34801561037457600080fd5b5061038f600480360381019061038a9190612a93565b610c62565b60405161039c9190612a4c565b60405180910390f35b3480156103b157600080fd5b506103cc60048036038101906103c79190612ac0565b610c81565b005b3480156103da57600080fd5b506103f560048036038101906103f09190612b00565b610caa565b6040516104029190612917565b60405180910390f35b34801561041757600080fd5b50610432600480360381019061042d9190612ac0565b610cca565b005b34801561044057600080fd5b50610449610d4d565b005b34801561045757600080fd5b50610460610ed6565b60405161046d9190612b2d565b60405180910390f35b34801561048257600080fd5b5061048b610ee3565b6040516104989190612b2d565b60405180910390f35b3480156104ad57600080fd5b506104b6610ef4565b6040516104c39190612a11565b60405180910390f35b3480156104d857600080fd5b506104f360048036038101906104ee9190612b48565b610f82565b6040516105009190612917565b60405180910390f35b34801561051557600080fd5b5061051e610fb1565b60405161052b9190612a11565b60405180910390f35b34801561054057600080fd5b5061055b60048036038101906105569190612932565b611043565b005b34801561056957600080fd5b50610572611320565b60405161057f9190612ba1565b60405180910390f35b34801561059457600080fd5b506105af60048036038101906105aa9190612ac0565b6113de565b6040516105bc9190612917565b60405180910390f35b3480156105d157600080fd5b506105ec60048036038101906105e79190612932565b611448565b6040516105fd959493929190612c11565b60405180910390f35b34801561061257600080fd5b5061061b611543565b6040516106289190612d29565b60405180910390f35b34801561063d57600080fd5b5061065860048036038101906106539190612932565b6115d1565b005b34801561066657600080fd5b5061066f6118c9565b60405161067c9190612a4c565b60405180910390f35b34801561069157600080fd5b5061069a6118d0565b6040516106a79190612b2d565b60405180910390f35b3480156106bc57600080fd5b506106c56118d6565b005b3480156106d357600080fd5b506106ee60048036038101906106e99190612932565b611a42565b005b3480156106fc57600080fd5b5061071760048036038101906107129190612932565b611ce6565b604051610728959493929190612c11565b60405180910390f35b34801561073d57600080fd5b50610746611df9565b005b34801561075457600080fd5b5061075d611e79565b60405161076a9190612b2d565b60405180910390f35b34801561077f57600080fd5b5061079a60048036038101906107959190612932565b611e7f565b6040516107a7919061296e565b60405180910390f35b3480156107bc57600080fd5b506107c5611ebe565b6040516107d29190612b2d565b60405180910390f35b3480156107e757600080fd5b5061080260048036038101906107fd9190612b00565b611ec4565b60405161080f9190612917565b60405180910390f35b34801561082457600080fd5b5061083f600480360381019061083a9190612ac0565b611ee4565b005b34801561084d57600080fd5b50610856611f0d565b6040516108639190612b2d565b60405180910390f35b34801561087857600080fd5b50610881611f13565b60405161088e9190612b2d565b60405180910390f35b3480156108a357600080fd5b506108ac611f19565b6040516108b99190612d29565b60405180910390f35b3480156108ce57600080fd5b506108d7611fa7565b6040516108e49190612b2d565b60405180910390f35b600460003373ffffffffffffffffffffffffffffffffffffffff1673ffffffffffffffffffffffffffffffffffffffff16815260200190815260200160002060009054906101000a900460ff16610979576040517f08c379a000000000000000000000000000000000000000000000000000000000815260040161097090612d97565b60405180910390fd5b6000600f805490509050600f6040518060a001604052808673ffffffffffffffffffffffffffffffffffffffff1681526020018581526020018481526020016000151581526020016000815250908060018154018082558091505060019003906000526020600020906005020160009091909190915060008201518160000160006101000a81548173ffffffffffffffffffffffffffffffffffffffff021916908373ffffffffffffffffffffffffffffffffffffffff160217905550602082015181600101556040820151816002019080519060200190610a5c9291906124b9565b5060608201518160030160006101000a81548160ff0219169083151502179055506080820151816004015550508373ffffffffffffffffffffffffffffffffffffffff16813373ffffffffffffffffffffffffffffffffffffffff167fd7d970d6c47f0608fcd3e1d3d26cca156728bc7ccd5747cd4743d9bc531294f28686604051610ae9929190612db7565b60405180910390a450505050565b60007f7965db0b000000000000000000000000000000000000000000000000000000007bffffffffffffffffffffffffffffffffffffffffffffffffffffffff1916827bffffffffffffffffffffffffffffffffffffffffffffffffffffffff19161480610b6a5750610b6982611fad565b5b9050919050565b60028181548110610b8157600080fd5b906000526020600020016000915054906101000a900473ffffffffffffffffffffffffffffffffffffffff1681565b60018054610bbd90612e16565b80601f0160208091040260200160405190810160405280929190818152602001828054610be990612e16565b8015610c365780601f10610c0b57610100808354040283529160200191610c36565b820191906000526020600020905b815481529060010190602001808311610c1957829003601f168201915b505050505081565b7f6ef4bee37ad6db93fb68962b641de2c2c640c31c387583c84b86d117da32a78e81565b6000806000838152602001908152602001600020600101549050919050565b610c8a82610c62565b610c9b81610c96612017565b61201f565b610ca583836120bc565b505050565b60046020528060005260406000206000915054906101000a900460ff1681565b610cd2612017565b73ffffffffffffffffffffffffffffffffffffffff168173ffffffffffffffffffffffffffffffffffffffff1614610d3f576040517f08c379a0000000000000000000000000000000000000000000000000000000008152600401610d3690612eba565b60405180910390fd5b610d49828261219c565b5050565b7f6ef4bee37ad6db93fb68962b641de2c2c640c31c387583c84b86d117da32a78e610d7f81610d7a612017565b61201f565b60001515600560003373ffffffffffffffffffffffffffffffffffffffff1673ffffffffffffffffffffffffffffffffffffffff16815260200190815260200160002060009054906101000a900460ff16151514610ddc57600080fd5b6040518060400160405280600881526020017f416c6c20676f6f64000000000000000000000000000000000000000000000000815250600b9080519060200190610e2792919061253f565b5060011515600560003373ffffffffffffffffffffffffffffffffffffffff1673ffffffffffffffffffffffffffffffffffffffff16815260200190815260200160002060009054906101000a905050506001600854610e879190612f09565b6008819055506003805490506008541415610ed35742600a819055506040518060a00160405280607b8152602001613756607b9139600b9080519060200190610ed192919061253f565b505b50565b6000600f80549050905090565b600042600c81905550600c54905090565b600b8054610f0190612e16565b80601f0160208091040260200160405190810160405280929190818152602001828054610f2d90612e16565b8015610f7a5780601f10610f4f57610100808354040283529160200191610f7a565b820191906000526020600020905b815481529060010190602001808311610f5d57829003601f168201915b505050505081565b600e6020528160005260406000206020528060005260406000206000915091509054906101000a900460ff1681565b6060600b8054610fc090612e16565b80601f0160208091040260200160405190810160405280929190818152602001828054610fec90612e16565b80156110395780601f1061100e57610100808354040283529160200191611039565b820191906000526020600020905b81548152906001019060200180831161101c57829003601f168201915b5050505050905090565b600460003373ffffffffffffffffffffffffffffffffffffffff1673ffffffffffffffffffffffffffffffffffffffff16815260200190815260200160002060009054906101000a900460ff166110cf576040517f08c379a00000000000000000000000000000000000000000000000000000000081526004016110c690612d97565b60405180910390fd5b80600f805490508110611117576040517f08c379a000000000000000000000000000000000000000000000000000000000815260040161110e90612fab565b60405180910390fd5b81600f818154811061112c5761112b612fcb565b5b906000526020600020906005020160030160009054906101000a900460ff161561118b576040517f08c379a000000000000000000000000000000000000000000000000000000000815260040161118290613046565b60405180910390fd5b82600e600082815260200190815260200160002060003373ffffffffffffffffffffffffffffffffffffffff1673ffffffffffffffffffffffffffffffffffffffff16815260200190815260200160002060009054906101000a900460ff161561122a576040517f08c379a0000000000000000000000000000000000000000000000000000000008152600401611221906130d8565b60405180910390fd5b6000600f85815481106112405761123f612fcb565b5b9060005260206000209060050201905060018160040160008282546112659190612f09565b925050819055506001600e600087815260200190815260200160002060003373ffffffffffffffffffffffffffffffffffffffff1673ffffffffffffffffffffffffffffffffffffffff16815260200190815260200160002060006101000a81548160ff021916908315150217905550843373ffffffffffffffffffffffffffffffffffffffff167f6bf47240573da7666410716de92907e288332c261841d1d499fb094b7288a49260405160405180910390a35050505050565b600080600080600080600d60009054906101000a900473ffffffffffffffffffffffffffffffffffffffff1673ffffffffffffffffffffffffffffffffffffffff1663feaf968c6040518163ffffffff1660e01b815260040160a06040518083038186803b15801561139157600080fd5b505afa1580156113a5573d6000803e3d6000fd5b505050506040513d601f19601f820116820180604052508101906113c9919061317b565b94509450945094509450839550505050505090565b600080600084815260200190815260200160002060000160008373ffffffffffffffffffffffffffffffffffffffff1673ffffffffffffffffffffffffffffffffffffffff16815260200190815260200160002060009054906101000a900460ff16905092915050565b600f818154811061145857600080fd5b90600052602060002090600502016000915090508060000160009054906101000a900473ffffffffffffffffffffffffffffffffffffffff16908060010154908060020180546114a790612e16565b80601f01602080910402602001604051908101604052809291908181526020018280546114d390612e16565b80156115205780601f106114f557610100808354040283529160200191611520565b820191906000526020600020905b81548152906001019060200180831161150357829003601f168201915b5050505050908060030160009054906101000a900460ff16908060040154905085565b606060028054806020026020016040519081016040528092919081815260200182805480156115c757602002820191906000526020600020905b8160009054906101000a900473ffffffffffffffffffffffffffffffffffffffff1673ffffffffffffffffffffffffffffffffffffffff168152602001906001019080831161157d575b5050505050905090565b600460003373ffffffffffffffffffffffffffffffffffffffff1673ffffffffffffffffffffffffffffffffffffffff16815260200190815260200160002060009054906101000a900460ff1661165d576040517f08c379a000000000000000000000000000000000000000000000000000000000815260040161165490612d97565b60405180910390fd5b80600f8054905081106116a5576040517f08c379a000000000000000000000000000000000000000000000000000000000815260040161169c90612fab565b60405180910390fd5b81600f81815481106116ba576116b9612fcb565b5b906000526020600020906005020160030160009054906101000a900460ff1615611719576040517f08c379a000000000000000000000000000000000000000000000000000000000815260040161171090613046565b60405180910390fd5b6000600f848154811061172f5761172e612fcb565b5b9060005260206000209060050201905060075481600401541015611788576040517f08c379a000000000000000000000000000000000000000000000000000000000815260040161177f90613242565b60405180910390fd5b60018160030160006101000a81548160ff02191690831515021790555060008160000160009054906101000a900473ffffffffffffffffffffffffffffffffffffffff1673ffffffffffffffffffffffffffffffffffffffff168260010154836002016040516117f89190613301565b60006040518083038185875af1925050503d8060008114611835576040519150601f19603f3d011682016040523d82523d6000602084013e61183a565b606091505b505090508061187e576040517f08c379a000000000000000000000000000000000000000000000000000000000815260040161187590613364565b60405180910390fd5b843373ffffffffffffffffffffffffffffffffffffffff167f1773ae5168d66de1f21a97bfa57479ea93b8ec70984aef162fdbbe8dba76d4ad60405160405180910390a35050505050565b6000801b81565b60065481565b600654600a54426118e79190613384565b1015611928576040517f08c379a000000000000000000000000000000000000000000000000000000000815260040161191f90613450565b60405180910390fd5b6000600954426119389190613384565b9050600654811180156119515750600380549050600854145b15611a3f57600047905060006003805490508261196e919061349f565b905060005b600380549050811015611a3b576003818154811061199457611993612fcb565b5b9060005260206000200160009054906101000a900473ffffffffffffffffffffffffffffffffffffffff1673ffffffffffffffffffffffffffffffffffffffff16826040516119e290613542565b60006040518083038185875af1925050503d8060008114611a1f576040519150601f19603f3d011682016040523d82523d6000602084013e611a24565b606091505b505050600181611a349190612f09565b9050611973565b5050505b50565b600460003373ffffffffffffffffffffffffffffffffffffffff1673ffffffffffffffffffffffffffffffffffffffff16815260200190815260200160002060009054906101000a900460ff16611ace576040517f08c379a0000000000000000000000000000000000000000000000000000000008152600401611ac590612d97565b60405180910390fd5b80600f805490508110611b16576040517f08c379a0000000000000000000000000000000000000000000000000000000008152600401611b0d90612fab565b60405180910390fd5b81600f8181548110611b2b57611b2a612fcb565b5b906000526020600020906005020160030160009054906101000a900460ff1615611b8a576040517f08c379a0000000000000000000000000000000000000000000000000000000008152600401611b8190613046565b60405180910390fd5b6000600f8481548110611ba057611b9f612fcb565b5b90600052602060002090600502019050600e600085815260200190815260200160002060003373ffffffffffffffffffffffffffffffffffffffff1673ffffffffffffffffffffffffffffffffffffffff16815260200190815260200160002060009054906101000a900460ff16611c1757600080fd5b6001816004016000828254611c2c9190613384565b925050819055506000600e600086815260200190815260200160002060003373ffffffffffffffffffffffffffffffffffffffff1673ffffffffffffffffffffffffffffffffffffffff16815260200190815260200160002060006101000a81548160ff021916908315150217905550833373ffffffffffffffffffffffffffffffffffffffff167f0f27710fd1735b414ba09534a6553007d3a8b8c4a47f70a47f7ed11d7ce050b960405160405180910390a350505050565b60008060606000806000600f8781548110611d0457611d03612fcb565b5b906000526020600020906005020190508060000160009054906101000a900473ffffffffffffffffffffffffffffffffffffffff168160010154826002018360030160009054906101000a900460ff168460040154828054611d6590612e16565b80601f0160208091040260200160405190810160405280929190818152602001828054611d9190612e16565b8015611dde5780601f10611db357610100808354040283529160200191611dde565b820191906000526020600020905b815481529060010190602001808311611dc157829003601f168201915b50505050509250955095509550955095505091939590929450565b6002600081548110611e0e57611e0d612fcb565b5b9060005260206000200160009054906101000a900473ffffffffffffffffffffffffffffffffffffffff1673ffffffffffffffffffffffffffffffffffffffff163373ffffffffffffffffffffffffffffffffffffffff1614611e7057600080fd5b42600981905550565b60075481565b60038181548110611e8f57600080fd5b906000526020600020016000915054906101000a900473ffffffffffffffffffffffffffffffffffffffff1681565b600a5481565b60056020528060005260406000206000915054906101000a900460ff1681565b611eed82610c62565b611efe81611ef9612017565b61201f565b611f08838361219c565b505050565b600c5481565b60085481565b60606003805480602002602001604051908101604052809291908181526020018280548015611f9d57602002820191906000526020600020905b8160009054906101000a900473ffffffffffffffffffffffffffffffffffffffff1673ffffffffffffffffffffffffffffffffffffffff1681526020019060010190808311611f53575b5050505050905090565b60095481565b60007f01ffc9a7000000000000000000000000000000000000000000000000000000007bffffffffffffffffffffffffffffffffffffffffffffffffffffffff1916827bffffffffffffffffffffffffffffffffffffffffffffffffffffffff1916149050919050565b600033905090565b61202982826113de565b6120b85761204e8173ffffffffffffffffffffffffffffffffffffffff16601461227d565b61205c8360001c602061227d565b60405160200161206d92919061362b565b6040516020818303038152906040526040517f08c379a00000000000000000000000000000000000000000000000000000000081526004016120af9190612a11565b60405180910390fd5b5050565b6120c682826113de565b61219857600160008084815260200190815260200160002060000160008373ffffffffffffffffffffffffffffffffffffffff1673ffffffffffffffffffffffffffffffffffffffff16815260200190815260200160002060006101000a81548160ff02191690831515021790555061213d612017565b73ffffffffffffffffffffffffffffffffffffffff168173ffffffffffffffffffffffffffffffffffffffff16837f2f8788117e7eff1d82e926ec794901d17c78024a50270940304540a733656f0d60405160405180910390a45b5050565b6121a682826113de565b1561227957600080600084815260200190815260200160002060000160008373ffffffffffffffffffffffffffffffffffffffff1673ffffffffffffffffffffffffffffffffffffffff16815260200190815260200160002060006101000a81548160ff02191690831515021790555061221e612017565b73ffffffffffffffffffffffffffffffffffffffff168173ffffffffffffffffffffffffffffffffffffffff16837ff6391f5c32d9c69d2a47ea670b442974b53935d1edc7fd64eb21e047a839171b60405160405180910390a45b5050565b6060600060028360026122909190613665565b61229a9190612f09565b67ffffffffffffffff8111156122b3576122b26126dd565b5b6040519080825280601f01601f1916602001820160405280156122e55781602001600182028036833780820191505090505b5090507f30000000000000000000000000000000000000000000000000000000000000008160008151811061231d5761231c612fcb565b5b60200101907effffffffffffffffffffffffffffffffffffffffffffffffffffffffffffff1916908160001a9053507f78000000000000000000000000000000000000000000000000000000000000008160018151811061238157612380612fcb565b5b60200101907effffffffffffffffffffffffffffffffffffffffffffffffffffffffffffff1916908160001a905350600060018460026123c19190613665565b6123cb9190612f09565b90505b600181111561246b577f3031323334353637383961626364656600000000000000000000000000000000600f86166010811061240d5761240c612fcb565b5b1a60f81b82828151811061242457612423612fcb565b5b60200101907effffffffffffffffffffffffffffffffffffffffffffffffffffffffffffff1916908160001a905350600485901c945080612464906136bf565b90506123ce565b50600084146124af576040517f08c379a00000000000000000000000000000000000000000000000000000000081526004016124a690613735565b60405180910390fd5b8091505092915050565b8280546124c590612e16565b90600052602060002090601f0160209004810192826124e7576000855561252e565b82601f1061250057805160ff191683800117855561252e565b8280016001018555821561252e579182015b8281111561252d578251825591602001919060010190612512565b5b50905061253b91906125c5565b5090565b82805461254b90612e16565b90600052602060002090601f01602090048101928261256d57600085556125b4565b82601f1061258657805160ff19168380011785556125b4565b828001600101855582156125b4579182015b828111156125b3578251825591602001919060010190612598565b5b5090506125c191906125c5565b5090565b5b808211156125de5760008160009055506001016125c6565b5090565b6000819050919050565b6125f5816125e2565b82525050565b600060408201905061261060008301856125ec565b61261d60208301846125ec565b9392505050565b6000604051905090565b600080fd5b600080fd5b600073ffffffffffffffffffffffffffffffffffffffff82169050919050565b600061266382612638565b9050919050565b61267381612658565b811461267e57600080fd5b50565b6000813590506126908161266a565b92915050565b61269f816125e2565b81146126aa57600080fd5b50565b6000813590506126bc81612696565b92915050565b600080fd5b600080fd5b6000601f19601f8301169050919050565b7f4e487b7100000000000000000000000000000000000000000000000000000000600052604160045260246000fd5b612715826126cc565b810181811067ffffffffffffffff82111715612734576127336126dd565b5b80604052505050565b6000612747612624565b9050612753828261270c565b919050565b600067ffffffffffffffff821115612773576127726126dd565b5b61277c826126cc565b9050602081019050919050565b82818337600083830152505050565b60006127ab6127a684612758565b61273d565b9050828152602081018484840111156127c7576127c66126c7565b5b6127d2848285612789565b509392505050565b600082601f8301126127ef576127ee6126c2565b5b81356127ff848260208601612798565b91505092915050565b6000806000606084860312156128215761282061262e565b5b600061282f86828701612681565b9350506020612840868287016126ad565b925050604084013567ffffffffffffffff81111561286157612860612633565b5b61286d868287016127da565b9150509250925092565b60007fffffffff0000000000000000000000000000000000000000000000000000000082169050919050565b6128ac81612877565b81146128b757600080fd5b50565b6000813590506128c9816128a3565b92915050565b6000602082840312156128e5576128e461262e565b5b60006128f3848285016128ba565b91505092915050565b60008115159050919050565b612911816128fc565b82525050565b600060208201905061292c6000830184612908565b92915050565b6000602082840312156129485761294761262e565b5b6000612956848285016126ad565b91505092915050565b61296881612658565b82525050565b6000602082019050612983600083018461295f565b92915050565b600081519050919050565b600082825260208201905092915050565b60005b838110156129c35780820151818401526020810190506129a8565b838111156129d2576000848401525b50505050565b60006129e382612989565b6129ed8185612994565b93506129fd8185602086016129a5565b612a06816126cc565b840191505092915050565b60006020820190508181036000830152612a2b81846129d8565b905092915050565b6000819050919050565b612a4681612a33565b82525050565b6000602082019050612a616000830184612a3d565b92915050565b612a7081612a33565b8114612a7b57600080fd5b50565b600081359050612a8d81612a67565b92915050565b600060208284031215612aa957612aa861262e565b5b6000612ab784828501612a7e565b91505092915050565b60008060408385031215612ad757612ad661262e565b5b6000612ae585828601612a7e565b9250506020612af685828601612681565b9150509250929050565b600060208284031215612b1657612b1561262e565b5b6000612b2484828501612681565b91505092915050565b6000602082019050612b4260008301846125ec565b92915050565b60008060408385031215612b5f57612b5e61262e565b5b6000612b6d858286016126ad565b9250506020612b7e85828601612681565b9150509250929050565b6000819050919050565b612b9b81612b88565b82525050565b6000602082019050612bb66000830184612b92565b92915050565b600081519050919050565b600082825260208201905092915050565b6000612be382612bbc565b612bed8185612bc7565b9350612bfd8185602086016129a5565b612c06816126cc565b840191505092915050565b600060a082019050612c26600083018861295f565b612c3360208301876125ec565b8181036040830152612c458186612bd8565b9050612c546060830185612908565b612c6160808301846125ec565b9695505050505050565b600081519050919050565b600082825260208201905092915050565b6000819050602082019050919050565b612ca081612658565b82525050565b6000612cb28383612c97565b60208301905092915050565b6000602082019050919050565b6000612cd682612c6b565b612ce08185612c76565b9350612ceb83612c87565b8060005b83811015612d1c578151612d038882612ca6565b9750612d0e83612cbe565b925050600181019050612cef565b5085935050505092915050565b60006020820190508181036000830152612d438184612ccb565b905092915050565b7f4f6e6c79204f776e65722063616e20646f207468697321000000000000000000600082015250565b6000612d81601783612994565b9150612d8c82612d4b565b602082019050919050565b60006020820190508181036000830152612db081612d74565b9050919050565b6000604082019050612dcc60008301856125ec565b8181036020830152612dde8184612bd8565b90509392505050565b7f4e487b7100000000000000000000000000000000000000000000000000000000600052602260045260246000fd5b60006002820490506001821680612e2e57607f821691505b60208210811415612e4257612e41612de7565b5b50919050565b7f416363657373436f6e74726f6c3a2063616e206f6e6c792072656e6f756e636560008201527f20726f6c657320666f722073656c660000000000000000000000000000000000602082015250565b6000612ea4602f83612994565b9150612eaf82612e48565b604082019050919050565b60006020820190508181036000830152612ed381612e97565b9050919050565b7f4e487b7100000000000000000000000000000000000000000000000000000000600052601160045260246000fd5b6000612f14826125e2565b9150612f1f836125e2565b9250827fffffffffffffffffffffffffffffffffffffffffffffffffffffffffffffffff03821115612f5457612f53612eda565b5b828201905092915050565b7f4e6f207472616e73616374696f6e206279207468697320696e64657800000000600082015250565b6000612f95601c83612994565b9150612fa082612f5f565b602082019050919050565b60006020820190508181036000830152612fc481612f88565b9050919050565b7f4e487b7100000000000000000000000000000000000000000000000000000000600052603260045260246000fd5b7f7472616e73616374696f6e20697320616c726561647920646f6e650000000000600082015250565b6000613030601b83612994565b915061303b82612ffa565b602082019050919050565b6000602082019050818103600083015261305f81613023565b9050919050565b7f63616e7420636f6e6669726d207472616e73616374696f6e207477696365206660008201527f726f6d2073616e65207573657200000000000000000000000000000000000000602082015250565b60006130c2602d83612994565b91506130cd82613066565b604082019050919050565b600060208201905081810360008301526130f1816130b5565b9050919050565b600069ffffffffffffffffffff82169050919050565b613117816130f8565b811461312257600080fd5b50565b6000815190506131348161310e565b92915050565b61314381612b88565b811461314e57600080fd5b50565b6000815190506131608161313a565b92915050565b60008151905061317581612696565b92915050565b600080600080600060a086880312156131975761319661262e565b5b60006131a588828901613125565b95505060206131b688828901613151565b94505060406131c788828901613166565b93505060606131d888828901613166565b92505060806131e988828901613125565b9150509295509295909350565b7f636f756c646e27742065786563207472616e73616374696f6e00000000000000600082015250565b600061322c601983612994565b9150613237826131f6565b602082019050919050565b6000602082019050818103600083015261325b8161321f565b9050919050565b600081905092915050565b60008190508160005260206000209050919050565b6000815461328f81612e16565b6132998186613262565b945060018216600081146132b457600181146132c5576132f8565b60ff198316865281860193506132f8565b6132ce8561326d565b60005b838110156132f0578154818901526001820191506020810190506132d1565b838801955050505b50505092915050565b600061330d8284613282565b915081905092915050565b7f4661696c65642100000000000000000000000000000000000000000000000000600082015250565b600061334e600783612994565b915061335982613318565b602082019050919050565b6000602082019050818103600083015261337d81613341565b9050919050565b600061338f826125e2565b915061339a836125e2565b9250828210156133ad576133ac612eda565b5b828203905092915050565b7f43414e4e4f542043414c4c20544849532046554e4354494f4e204e4f5720415460008201527f5441434b4552212121204749564520544845204f574e4552204849532043484f60208201527f53454e2054494d4520544f2050494e4721212100000000000000000000000000604082015250565b600061343a605383612994565b9150613445826133b8565b606082019050919050565b600060208201905081810360008301526134698161342d565b9050919050565b7f4e487b7100000000000000000000000000000000000000000000000000000000600052601260045260246000fd5b60006134aa826125e2565b91506134b5836125e2565b9250826134c5576134c4613470565b5b828204905092915050565b7f596f752077657265206120686965722c206865726520697320796f7572206d6f60008201527f6e65790000000000000000000000000000000000000000000000000000000000602082015250565b600061352c602383613262565b9150613537826134d0565b602382019050919050565b600061354d8261351f565b9150819050919050565b600081905092915050565b7f416363657373436f6e74726f6c3a206163636f756e7420000000000000000000600082015250565b6000613598601783613557565b91506135a382613562565b601782019050919050565b60006135b982612989565b6135c38185613557565b93506135d38185602086016129a5565b80840191505092915050565b7f206973206d697373696e6720726f6c6520000000000000000000000000000000600082015250565b6000613615601183613557565b9150613620826135df565b601182019050919050565b60006136368261358b565b915061364282856135ae565b915061364d82613608565b915061365982846135ae565b91508190509392505050565b6000613670826125e2565b915061367b836125e2565b9250817fffffffffffffffffffffffffffffffffffffffffffffffffffffffffffffffff04831182151516156136b4576136b3612eda565b5b828202905092915050565b60006136ca826125e2565b915060008214156136de576136dd612eda565b5b600182039050919050565b7f537472696e67733a20686578206c656e67746820696e73756666696369656e74600082015250565b600061371f602083612994565b915061372a826136e9565b602082019050919050565b6000602082019050818103600083015261374e81613712565b905091905056fe54686520686965727320766f746564207468617420746865206f776e657220697320646561642c20496620796f752061726520746865206f776e65722c20706c6561736520636c69636b2070696e6720696e2061206d6f6e746820706572696f6420746f20636f6e6669726d20796f752061726520616c69766521a2646970667358221220bfdc78d6f84b0aab72b4711bcc6fed7d49b7fc66abe23807f8efc4798150989564736f6c63430008090033",
  "immutableReferences": {},
  "source": "pragma solidity 0.8.9;\r\nimport \"./AggregatorV3Interface.sol\";\r\nimport \"@openzeppelin/contracts/access/AccessControl.sol\";\r\n\r\n///import \"@openzeppelin/contracts/access/Ownable.sol\";\r\n\r\n///@title A Transfer On Death MultiSig Wallet\r\n///@author Salaheldin Soliman\r\n///@dev this is using role based access control\r\ncontract TODWallet is AccessControl  {\r\n    bytes32 public constant HIER_ROLE = keccak256(\"HIER_ROLE\");\r\n \r\n\r\n    string public name = \"TODWallet\";\r\n    event Deposit(address indexed sender, uint amount, uint balance);\r\n    event requestTx(\r\n        address indexed owner,\r\n        uint indexed txIndex,\r\n        address indexed to,\r\n        uint value,\r\n        bytes data\r\n    );\r\n\r\n    event approveTx(address indexed owner, uint indexed txIndex);\r\n    event removeConfirmation(address indexed owner, uint indexed txIndex);\r\n    event execTx(address indexed owner, uint indexed txIndex);\r\n \r\n    address[] public owners;\r\n    address [] public hiers;\r\n    mapping(address => bool) public isOwner;\r\n    mapping(address => bool) public isVoted;\r\n\r\n    ///@notice period to ping the contract if hiers voted the owner dead in seconds\r\n    uint public PeriodAfterVoting;\r\n\r\n    \r\n\r\n    uint public Confirmations;\r\n    uint public votes;\r\n    uint public LastPing = block.timestamp;\r\n    uint public AllVotedDead = 0;\r\n    string public Reminder= \"\";\r\n    uint public TimeLeft = 0;\r\n\r\n    AggregatorV3Interface internal priceFeed;\r\n\r\n    struct Transaction {\r\n        address to;\r\n        uint value;\r\n        bytes data;\r\n        bool executed;\r\n        uint numConfirmations;\r\n    }\r\n\r\n    mapping(uint => mapping(address => bool)) public isConfirmed;\r\n\r\n    Transaction[] public transactions;\r\n\r\n    modifier onlyOwner() {\r\n        require(isOwner[msg.sender], \"Only Owner can do this!\");\r\n        _;\r\n    }\r\n\r\n    modifier txExists(uint _txIndex) {\r\n        require(_txIndex < transactions.length, \"No transaction by this index\");\r\n        _;\r\n    }\r\n\r\n    modifier notExecuted(uint _txIndex) {\r\n        require(!transactions[_txIndex].executed, \"transaction is already done\");\r\n        _;\r\n    }\r\n\r\n    modifier notConfirmed(uint _txIndex) {\r\n        require(!isConfirmed[_txIndex][msg.sender], \"cant confirm transaction twice from sane user\");\r\n        _;\r\n    }\r\n///@param _owners is a list of owners\r\n///@param _numConfirmationsRequired confs required for a tx to be completed\r\n///@param _hiers is a list of heirs\r\n///@param _PeriodAfterVoting is a period given to owner to ping the contract after heris voted him dead in  second\r\n    constructor(address[] memory _owners, uint _numConfirmationsRequired , address[] memory _hiers, uint _PeriodAfterVoting) {\r\n         require(_owners.length > 0, \"owners required\");\r\n        require(\r\n            _numConfirmationsRequired > 0 &&\r\n                _numConfirmationsRequired <= _owners.length,\r\n            \"invalid number of required confirmations\"\r\n        );\r\n        priceFeed = AggregatorV3Interface(0x9326BFA02ADD2366b30bacB125260Af641031331);\r\n       \r\n\r\n        for (uint i = 0; i < _owners.length; i++) {\r\n            address owner = _owners[i];\r\n\r\n            require(owner != address(0), \"invalid owner\");\r\n            require(!isOwner[owner], \"owner not unique\");\r\n\r\n            isOwner[owner] = true;\r\n            owners.push(owner);\r\n        }\r\n         for (uint i = 0; i < _hiers.length; i++) {\r\n            address hier = _hiers[i];\r\n\r\n            require(hier != address(0), \"invalid owner\");\r\n\r\n            hiers.push(hier);\r\n            _setupRole(HIER_ROLE, hier);\r\n        }\r\n\r\n\r\n        Confirmations = _numConfirmationsRequired;\r\n        PeriodAfterVoting = _PeriodAfterVoting;\r\n    }\r\n\r\n    receive() external payable {\r\n        emit Deposit(msg.sender, msg.value, address(this).balance);\r\n    }\r\n \r\n\r\n///@notice request a Tx to be made\r\n    function requestTxFunc(\r\n        address _to,\r\n        uint _value,\r\n        bytes memory _data\r\n    ) public onlyOwner {\r\n        uint txIndex = transactions.length;\r\n\r\n        transactions.push(\r\n            Transaction({\r\n                to: _to,\r\n                value: _value,\r\n                data: _data,\r\n                executed: false,\r\n                numConfirmations: 0\r\n            })\r\n        );\r\n\r\n        emit requestTx(msg.sender, txIndex, _to, _value, _data);\r\n    }\r\n\r\n///@notice confirm Tx\r\n    function approveTxFunc(uint _txIndex)\r\n        public\r\n        onlyOwner\r\n        txExists(_txIndex)\r\n        notExecuted(_txIndex)\r\n        notConfirmed(_txIndex)\r\n    {\r\n        Transaction storage transaction = transactions[_txIndex];\r\n        transaction.numConfirmations += 1;\r\n        isConfirmed[_txIndex][msg.sender] = true;\r\n\r\n        emit approveTx(msg.sender, _txIndex);\r\n    }\r\n\r\n\r\n///@notice execute Tx afte num of confirmations reached\r\n///@param _txIndex of tx to be executed\r\n    function execTxFunc(uint _txIndex)\r\n        public\r\n        onlyOwner\r\n        txExists(_txIndex)\r\n        notExecuted(_txIndex)\r\n    {\r\n        Transaction storage transaction = transactions[_txIndex];\r\n\r\n        require(\r\n            transaction.numConfirmations >= Confirmations,\r\n            \"couldn't exec transaction\"\r\n        );\r\n\r\n        transaction.executed = true;\r\n\r\n        (bool success, ) = transaction.to.call{value: transaction.value}(\r\n            transaction.data\r\n        );\r\n        require(success, \"Failed!\");\r\n\r\n        emit execTx(msg.sender, _txIndex) ;\r\n    }\r\n\r\n///@notice called to remove confirmation\r\n    function removeConfirmationFunc(uint _txIndex)\r\n        public\r\n        onlyOwner\r\n        txExists(_txIndex)\r\n        notExecuted(_txIndex)\r\n    {\r\n        Transaction storage transaction = transactions[_txIndex];\r\n\r\n        require(isConfirmed[_txIndex][msg.sender]);\r\n\r\n        transaction.numConfirmations -= 1;\r\n        isConfirmed[_txIndex][msg.sender] = false;\r\n\r\n        emit removeConfirmation(msg.sender, _txIndex);\r\n    }\r\n\r\n///@notice get list of owners\r\n////@return owners\r\n    function getOwners() public view returns (address[] memory) {\r\n        return owners;\r\n    }\r\n\r\n///@notice get list of heirs\r\n////@return heirs\r\n    function getHiers() public view returns (address[] memory) {\r\n        return hiers;\r\n    }\r\n\r\n///@notice get number of Txs\r\n////@return number of txs\r\n    function numberOfTransactionsGetter() public view returns (uint) {\r\n        return transactions.length;\r\n    }\r\n\r\n\r\n\r\n///@notice get list of transactions\r\n///@param _txIndex is the index of the transaction \r\n\r\n    function TxGetter(uint _txIndex)\r\n        public\r\n        view\r\n        returns (\r\n            address to,\r\n            uint value,\r\n            bytes memory data,\r\n            bool executed,\r\n            uint numConfirmations\r\n        )\r\n    {\r\n        Transaction storage transaction = transactions[_txIndex];\r\n\r\n        return (\r\n            transaction.to,\r\n            transaction.value,\r\n            transaction.data,\r\n            transaction.executed,\r\n            transaction.numConfirmations\r\n        );\r\n    }\r\n\r\n\r\n    ///@notice get the latest price of ethereum from an oracle\r\n    ///@dev  uint80 roundID, uint startedAt,uint timeStamp, uint80 answeredInRound are unused vars\r\n    function getLatestPrice() public view returns (int) {\r\n        (\r\n            uint80 roundID, \r\n            int price,\r\n            uint startedAt,\r\n            uint timeStamp,\r\n            uint80 answeredInRound\r\n        ) = priceFeed.latestRoundData();\r\n        return price;}\r\n    \r\n    ///@notice function get called by the hier to inform to tell the contract the owner is dead\r\n    function OwnerIsDeceased()public onlyRole(HIER_ROLE)  {\r\n        require(isVoted[msg.sender]== false);\r\n        Reminder= \"All good\";\r\n        isVoted[msg.sender]== true;\r\n        votes =votes+1;\r\n        if (votes == hiers.length){\r\n\r\n             AllVotedDead = block.timestamp;\r\n             Reminder = \"The hiers voted that the owner is dead, If you are the owner, please click ping in a month period to confirm you are alive!\";\r\n\r\n        }\r\n        \r\n    }\r\n\r\n\r\n///@notice reminder type either \"all good\" or \"heirs voted you dead\"\r\n///@return reminder for the owner\r\n     function getReminder() public view returns (string memory){\r\n         \r\n            return Reminder;\r\n\r\n    }\r\n\r\n///@notice get the remaining amount of time to ping the wallet\r\n///@return time left to ping\r\n    function getTimeLeftToPing() public returns (uint){\r\n\r\n        TimeLeft = block.timestamp;\r\n\r\n        return TimeLeft;\r\n    }\r\n\r\n    ///@notice use this as the owner to tell the contract you are allive\r\n    function IamAllive() public {\r\nrequire (msg.sender == owners[0]);\r\nLastPing = block.timestamp;\r\n    }\r\n\r\n\r\n\r\n    \r\n\r\n///@notice function can be called by any one after the heris voted, but not before the period that the owned decided on\r\nfunction IfOwnerDead() public {\r\n    require(block.timestamp - AllVotedDead >= PeriodAfterVoting , \"CANNOT CALL THIS FUNCTION NOW ATTACKER!!! GIVE THE OWNER HIS CHOSEN TIME TO PING!!!\" );\r\n\r\nuint diff = block.timestamp - LastPing;\r\nif (diff > PeriodAfterVoting && votes == hiers.length){\r\n     uint Contract_Balance = address(this).balance;\r\n    uint to_transfer = Contract_Balance/hiers.length  ;\r\n    \r\nfor (uint i=0 ; i<hiers.length; i=i+1){\r\n            hiers[i].call{value: to_transfer}(\"You were a hier, here is your money\");\r\n            }}}\r\n}\r\n",
  "sourcePath": "D:\\projects\\blockchain-developer-bootcamp-final-project\\TODWallet\\contracts\\TODWallet.sol",
  "compiler": {
    "name": "solc",
    "version": "0.8.9+commit.e5eed63a.Emscripten.clang"
  },
  "schemaVersion": "3.4.4",
  "updatedAt": "2022-01-21T22:53:20.817Z",
  "networkType": "ethereum",
  "devdoc": {
    "author": "Salaheldin Soliman",
    "details": "this is using role based access control",
    "kind": "dev",
    "methods": {
      "TxGetter(uint256)": {
        "params": {
          "_txIndex": "is the index of the transaction "
        }
      },
      "constructor": {
        "params": {
          "_PeriodAfterVoting": "is a period given to owner to ping the contract after heris voted him dead in  second",
          "_hiers": "is a list of heirs",
          "_numConfirmationsRequired": "confs required for a tx to be completed",
          "_owners": "is a list of owners"
        }
      },
      "execTxFunc(uint256)": {
        "params": {
          "_txIndex": "of tx to be executed"
        }
      },
      "getLatestPrice()": {
        "details": "uint80 roundID, uint startedAt,uint timeStamp, uint80 answeredInRound are unused vars"
      },
      "getReminder()": {
        "returns": {
          "_0": "reminder for the owner"
        }
      },
      "getRoleAdmin(bytes32)": {
        "details": "Returns the admin role that controls `role`. See {grantRole} and {revokeRole}. To change a role's admin, use {_setRoleAdmin}."
      },
      "getTimeLeftToPing()": {
        "returns": {
          "_0": "time left to ping"
        }
      },
      "grantRole(bytes32,address)": {
        "details": "Grants `role` to `account`. If `account` had not been already granted `role`, emits a {RoleGranted} event. Requirements: - the caller must have ``role``'s admin role."
      },
      "hasRole(bytes32,address)": {
        "details": "Returns `true` if `account` has been granted `role`."
      },
      "renounceRole(bytes32,address)": {
        "details": "Revokes `role` from the calling account. Roles are often managed via {grantRole} and {revokeRole}: this function's purpose is to provide a mechanism for accounts to lose their privileges if they are compromised (such as when a trusted device is misplaced). If the calling account had been revoked `role`, emits a {RoleRevoked} event. Requirements: - the caller must be `account`."
      },
      "revokeRole(bytes32,address)": {
        "details": "Revokes `role` from `account`. If `account` had been granted `role`, emits a {RoleRevoked} event. Requirements: - the caller must have ``role``'s admin role."
      },
      "supportsInterface(bytes4)": {
        "details": "See {IERC165-supportsInterface}."
      }
    },
    "title": "A Transfer On Death MultiSig Wallet",
    "version": 1
  },
  "userdoc": {
    "kind": "user",
    "methods": {
      "IamAllive()": {
        "notice": "use this as the owner to tell the contract you are allive"
      },
      "IfOwnerDead()": {
        "notice": "function can be called by any one after the heris voted, but not before the period that the owned decided on"
      },
      "OwnerIsDeceased()": {
        "notice": "function get called by the hier to inform to tell the contract the owner is dead"
      },
      "PeriodAfterVoting()": {
        "notice": "period to ping the contract if hiers voted the owner dead in seconds"
      },
      "TxGetter(uint256)": {
        "notice": "get list of transactions"
      },
      "approveTxFunc(uint256)": {
        "notice": "confirm Tx"
      },
      "execTxFunc(uint256)": {
        "notice": "execute Tx afte num of confirmations reached"
      },
      "getHiers()": {
        "notice": "get list of heirs"
      },
      "getLatestPrice()": {
        "notice": "get the latest price of ethereum from an oracle"
      },
      "getOwners()": {
        "notice": "get list of owners"
      },
      "getReminder()": {
        "notice": "reminder type either \"all good\" or \"heirs voted you dead\""
      },
      "getTimeLeftToPing()": {
        "notice": "get the remaining amount of time to ping the wallet"
      },
      "numberOfTransactionsGetter()": {
        "notice": "get number of Txs"
      },
      "removeConfirmationFunc(uint256)": {
        "notice": "called to remove confirmation"
      },
      "requestTxFunc(address,uint256,bytes)": {
        "notice": "request a Tx to be made"
      }
    },
    "version": 1
  }
}